S01700006275696C642F697269732F6D61696E2E7372656343
S11300000C9484010C94A3010C94A3010C94A301FB
S11300100C94A3010C94A3010C94A3010C94A301CC
S11300200C94A3010C94A3010C94A3010C94A301BC
S11300300C94A3010C948B220C94A3010C94CF2256
S11300400C94DF230C9490230C94C9230C94D42394
S11300500C9418240C94A3010C94A3010C94A301F4
S11300600C94F7220C9443240C94A3010C94B12413
S11300700C94A3010C94A3010C94A3010C940026EA
S11300800C94DF250C94EA250C94F5250C94132686
S11300900C94C3250C94A3010C94D4250C94A301B3
S11300A00C94A3010C94A3010C94A3010C94A3013C
S11300B00C94A3010C94A3010C94A3010C94A3012C
S11300C00C94A3010C94A3010C94A301A311451255
S11300D0A812DF16FF16CD172B18FA1B041C4C1C94
S11300E0471DE81CFC1C611D3F1E661E691E741E14
S11300F0AF1E081F1C1F431F6F1F7A1F911F722002
S1130100682100020E060C04000021104220633016
S11301108440A550C660E770088129914AA16BB15B
S11301208CC1ADD1CEE1EFF1311210027332522203
S1130130B5529442F772D662399318837BB35AA3AB
S1130140BDD39CC3FFF3DEE36224433420040114D3
S1130150E664C774A44485546AA54BB528850995FB
S1130160EEE5CFF5ACC58DD55336722611163006A3
S1130170D776F6669556B4465BB77AA7199738874B
S1130180DFF7FEE79DD7BCC7C448E5588668A77863
S11301904008611802282338CCC9EDD98EE9AFF99B
S11301A0488969990AA92BB9F55AD44AB77A966A43
S11301B0711A500A333A122AFDDBDCCBBFFB9EEBEB
S11301C0799B588B3BBB1AABA66C877CE44CC55C13
S11301D0222C033C600C411CAEED8FFDECCDCDDD3B
S11301E02AAD0BBD688D499D977EB66ED55EF44EE3
S11301F0133E322E511E700E9FFFBEEFDDDFFCCF8B
S11302001BBF3AAF599F788F8891A981CAB1EBA1DE
S11302100CD12DC14EF16FE18010A100C230E3205A
S11302200450254046706760B9839893FBA3DAB302
S11302303DC31CD37FE35EF3B1029012F322D232AA
S11302403542145277625672EAB5CBA5A8958985D2
S11302506EF54FE52CD50DC5E234C324A0148104FA
S11302606674476424540544DBA7FAB79987B897A2
S11302705FE77EF71DC73CD7D326F2369106B0164A
S113028057667676154634564CD96DC90EF92FE962
S1130290C899E9898AB9ABA944586548067827689A
S11302A0C018E1088238A3287DCB5CDB3FEB1EFB42
S11302B0F98BD89BBBAB9ABB754A545A376A167AEA
S11302C0F10AD01AB32A923A2EFD0FED6CDD4DCD12
S11302D0AABD8BADE89DC98D267C076C645C454C3A
S11302E0A23C832CE01CC10C1FEF3EFF5DCF7CDFE2
S11302F09BAFBABFD98FF89F176E367E554E745E8A
S1130300932EB23ED10EF01E11241FBECFEFD1E2C8
S1130310DEBFCDBF12E0A0E0B2E0ECE4F3E500E024
S11303200BBF02C007900D92A831B107D9F71DE1A8
S1130330A8E1B2E001C01D92A937B107E1F70E941C
S113034030260C94A4290C9400002F980895289A20
S11303500895209A08956091D202861788F5811134
S113036009C080914A0590E0019683709927809393
S11303704A0523C095E020914A0530E0280F311D3D
S1130380A90143705527949FD001959FB00D112466
S1130390A65FBC4F2F5F3F4F23703327929FF0011E
S11303A0939FF00D1124E65FFC4F292F01900D92CD
S11303B02A95E1F78F5F8613DECF61506093D202F6
S11303C008950DB407FEFDCF8EB50895982F0DB492
S11303D007FEFDCF8EB59EBD0895289808950F930E
S11303E01F93FC018081018110E020E030E098013E
S11303F011270027382B8381082B8281182BB80101
S1130400C9011F910F9108959C012627022E229560
S1130410207F2025032E322F22952F700226269529
S113042032272327220F220F220F2025C9010895E6
S11304301092041B1092031B84E080939503109286
S113044011081092A21B10921E0410927C051092A7
S11304507B0508958091A71B8F3F69F0E82FF0E09A
S1130460E251FD4F90819093A71B9F3F11F490930D
S1130470541D9FEF908308958091B0008093B00045
S11304808091B60081FDFCCF0895E6E8F5E040E0F8
S1130490208120FF07C0DF0115972D913C9128177B
S11304A0390729F04F5F3E964A3091F74FEF842F7A
S11304B008950E9445028F3F61F09EE0899FF001FC
S11304C01124EF57FA4F858181FF03C022853385BC
S11304D002C02FEF30E0C90108953F924F925F921E
S11304E06F927F928F929F92AF92BF92CF92DF9240
S11304F0EF92FF920F931F93CF93DF933FB6F8943D
S11305008091240490912504A0912604B09127049D
S11305102EE4A22E33E8B32EC12CD12CE12CF12CE5
S113052000E010E09C01AD0160E070E080E090E04C
S11305300E941C2929013A0100E20E9479294901FB
S11305405A017694679457944794480C591C6A1C32
S11305507B1C77FE07C0E89477F88FEF481A580A97
S1130560680A780A40922404509225046092260472
S1130570709227043FBEB201C301DF91CF911F9156
S11305800F91FF90EF90DF90CF90BF90AF909F902E
S11305908F907F906F905F904F903F9008959FB79A
S11305A0F894E82FF0E0E251FD4F20812F3F49F409
S11305B021E030E04091541D481729F020E030E05C
S11305C002C021E030E0211110C02091A71B2F3F71
S11305D019F48093A71B06C0E091541DF0E0E2518A
S11305E0FD4F80838093541D03C085E09FBF089511
S11305F080E0FCCF82E00C94CF0285E00C94CF0223
S113060020913B022F5F20933B02FC012383209126
S1130610930321110DC090930C0880930B0881E083
S1130620809393031092D8070E94FD0280E00895FE
S113063085E0089589E10C94CF0288E10C94CF02FF
S11306400F931F938FB7F8949091B2000091E90231
S11306501091EA022091EB023091EC02B99B0CC09C
S11306604091B3009091B2000F5F1F4F2F4F3F4F47
S1130670040F111D211D311D090F111D211D311DD7
S11306808FBFB801C9011F910F9108952FB7F89436
S113069080911402909115022FBF0895CF93DF9398
S11306A0DC019091D202C0914A0580E0D5E029C0D6
S11306B0E82FEC0FE37050963C91509720E0519650
S11306C04C915197B901642BDE9FF0011124E65F30
S11306D0FC4F408151816417750791F452965C91E7
S11306E05297428154130CC01D965C911D9744810E
S11306F0541306C053965C9153974381541719F0D1
S11307008F5F8913D5CFDF91CF9108953091200267
S1130710E32FF0E0EE0FFF1FEA55FB4E808191813D
S113072020911E02222359F03F5F3D3019F030938F
S1130730200202C010922002215020931E0208952C
S11307404091C4044C30B8F450912A04242F30E072
S1130750250F311D2C30310510F02C503109F901D1
S1130760EE0FFF1FEE5EF74F918380834F5F409340
S1130770C40480E0089581E008954091C3044C309E
S1130780B8F45091B21B242F30E0250F311D2C30CA
S1130790310510F02C503109F901EE0FFF1FE95A11
S11307A0F24E918380834F5F4093C30480E00895A9
S11307B081E008959FB7F89482B122E0822782B93C
S11307C09FBF08959FB7F89482B121E0822782B930
S11307D09FBF089580910A088A3021F4809195037F
S11307E0843021F081E08093380208958FE00E94E4
S11307F0CF02109238020895CF93CFB7F894809126
S11308004E1D811108C08DE00E94CF02811103C0EA
S113081081E080934E1DCFBFCF91089520911E0299
S11308202D30C0F430911F02E32FF0E0EE0FFF1FD4
S1130830EA55FB4E91838083832F8F5F8D3019F0AF
S113084080931F0202C010921F022F5F20931E028A
S113085080E0089581E008954FB7F894FC01B3E077
S1130860F695E795BA95E1F7E952F84F877099271D
S113087021E030E001C0220F8A95EAF78081822BC3
S113088080834FBF0895CF92DF92EF92FF92CF9370
S1130890DF93282F30E04BE0849FF0011124E45CC7
S11308A0FD4F4281538164817581452B462B472B33
S11308B069F080819181880F991F918380838130B1
S11308C0944020F080E094E0918380838BE0829FC9
S11308D0E001839FD00D1124C45CDD4F8E819F8184
S11308E0A885B9858A839B83AC83BD83C880D9805E
S11308F0E12CF12C89E0CC0CDD1CEE1CFF1C8A954C
S1130900D1F70E946D0228813981422F440FCB0117
S113091060E0742F0E94D228C80ED91EE11CF11C7D
S1130920C901A0E0B0E02AE0880F991FAA1FBB1FED
S11309302A95D1F78C199D09AE09BF098E839F832F
S1130940A887B9878A819B81AC81BD818C0D9D1D4F
S1130950AE1DBF1D8A839B83AC83BD83DF91CF9182
S1130960FF90EF90DF90CF900895EFB7F894209127
S11309708400309185002D5F3F4FA901481B590B1E
S11309804617570718F49B01280F391F2115310505
S113099011F421E030E02150310930938900209393
S11309A0880082E086BB80916F00826080936F0034
S11309B0EFBF08950F931F93CF93DF938C012FB74D
S11309C0F894C0910E08D0910F08CE018F5E9E4F0F
S11309D090930F0880930E082FBF87E00E94CF02E8
S11309E0CE01B8010E94D2289C012A5D3E4FC90164
S11309F0DF91CF911F910F9108959EE0899FF0019F
S1130A001124EF57FA4F7183608312821382148288
S1130A1085E0858386E08683878310861186138626
S1130A2012860895682FE6E8F5E020E030E08FEFC5
S1130A3090E0508150FF0BC051FF09C053FD07C027
S1130A40458156814217530710F09A01892F9F5F01
S1130A503E969A3071F7462F50E02417350708F474
S1130A608FEF08957091E7028F3F2FEF920721F0E7
S1130A702BE333E060E00CC0672F0CC0285F3F4FCE
S1130A80F9013897408151814817590719F06F5F70
S1130A906713F4CF862F0895CF93DF93EC010E9460
S1130AA032059091E702891308C08091091B909147
S1130AB00A1B8C179D07A9F51FC091509093E7025C
S1130AC028E017C0E82FF0E0DF0153E0AA0FBB1FB6
S1130AD05A95E1F7A55CBC4F63E0EE0FFF1F6A95E2
S1130AE0E1F7ED5BFC4F322F01900D923A95E1F75F
S1130AF08F5F891738F3D9CF8FEF9FEF90930A1B3D
S1130B008093091B10920C1B10920B1B10920D1B4F
S1130B1010920E1B81E080931802DF91CF910C9408
S1130B201A03DF91CF9108950F931F934FB7F89451
S1130B3000917705109178052091790530917A0517
S1130B408091840090918500B09B08C00F5F1F4F77
S1130B502F4F3F4F80918400909185004FBF9801A3
S1130B6011270027A0E0B0E0082B192B2A2B3B2BE0
S1130B70B801C9011F910F910895E8E0F1E06927D8
S1130B80660FF11DE60FF11DC895382F202D319603
S1130B90C8953025C901089590912C02911131C056
S1130BA081112FC041E040932C0280910C0280936C
S1130BB02B0230913702832F81708093E60280915B
S1130BC006029091070290932A0280932902809151
S1130BD0360280932802232F21702427367EE22FA9
S1130BE0F0E0EE0FFF1FE85FFD4F8081918190934D
S1130BF0070280930602322B3093370282E10C9471
S1130C00CF028091370280FF02C08B7F01C08D7FAD
S1130C10809337020895CF93DF93D82FC62F809106
S1130C209503813069F030F08230A1F1833009F00E
S1130C3001C140C0DD2309F426C10E94180211C17C
S1130C40D11121C16093A21B862F8454823008F0F5
S1130C50F1C00BC182E001C083E0809395038091D1
S1130C60370280FF03C082FDE5C003C081FDE2C0FE
S1130C7002C0846001C08260809337028091370291
S1130C80877E886080933702109236028FEF8093BC
S1130C900C02F9C0D111CEC060931E0480917B0573
S1130CA090917C050E94BD0590937C0580937B0503
S1130CB083E0D8C0809111088F3F09F4BBC0DD23C5
S1130CC009F453C0823008F4B5C0E091031BEE234D
S1130CD011F0E15001C0E2E0AE2FB0E0AD5FB44EE0
S1130CE012963C9120E0EE2311F0E15001C0E2E0C5
S1130CF0F0E0ED5FF44E8281282B40917B0550910A
S1130D007C052417350709F095C080E00E94CC05C6
S1130D108091A21B8434E1F420911E04E0916305C8
S1130D20309164058E2F8F5F863010F4982F01C0A8
S1130D3090E0931769F0F0E0ED59FA4F2283863082
S1130D4018F48093630502C0109263050E94FC03AB
S1130D500E941802809127028D7F80932702809140
S1130D603802882309F48FC073C0823008F44DC060
S1130D70E091041BF0E0ED5FF44E228130913702E4
S1130D80932F9695969596959370892F90E0813040
S1130D90910519F0029701F50FC0832F877E8061BA
S1130DA080933702222311F080E001C085E0809314
S1130DB0360220930C0210C080913602853860F40C
S1130DC0E0910602F0910702E80FF11D2083809163
S1130DD036028F5F809336028091041BE82FF0E087
S1130DE0ED5FF44E62818F5F833018F48093041BAF
S1130DF002C01092041B80917B0590917C050E9497
S1130E00BD0590937C0580937B058091031BE82F9F
S1130E10F0E0ED5FF44EC2838F5F833018F480936B
S1130E20031B02C01092031B809111088F5F8093F3
S1130E30110829C00E941802809127028D7F809397
S1130E40270281E00E94CC0580913802882339F082
S1130E5084E080939503DF91CF910C94EA03DD2322
S1130E6091F081E0809395030EC080917B05909171
S1130E707C050E94BD0590937C0580937B05C4345A
S1130E8009F0EACEE7CEDF91CF910895FC016485A5
S1130E908585611109C090E001972AE0289FB0017F
S1130EA0299F700D11240BC02AE0829FC0011124D8
S1130EB070E00E94E6286A5071091486158622851E
S1130EC0338549E0429FC001439F900D112405964C
S1130ED0860F971F6AE070E00E94D22873876287AA
S1130EE0089580919303811119C080914702811163
S1130EF015C080914B1D813029F48091D507811153
S1130F000DC002C0853061F083E0809347020E94E7
S1130F10FA0285E08093930380E0089585E00895C4
S1130F2089E00895FF920F931F93CF93DF9300D02E
S1130F30CDB7DEB71FB7F89420912904211125C03D
S1130F402091DB0230E0F901EE0FFF1FEE5DFC4F54
S1130F50F080018180839183C90101966CE070E087
S1130F600E94E6288093DB0290910D08981303C039
S1130F7081E0809329048091B01B81110EC00E94EE
S1130F80CF0281E08093B01B08C089839A830E94BA
S1130F90E2038981F82E9A81092F1FBF8F2D902F8C
S1130FA00F900F90DF91CF911F910F91FF900895B3
S1130FB08091360490913704892B79F581E090E093
S1130FC09093971B8093961B29E033E0309337046A
S1130FD02093360410921C0410921B0421E02093E9
S1130FE01D042091C00020642093C0002091C10002
S1130FF020642093C1002091090390931C048093E2
S11310001B049FB7F8942093C6008091C0008064AD
S11310108093C0009FBF80E0089585E008959FB746
S1131020F894809127028E7F809327028EE7809325
S113103009039FBF0C94D807982F9D57923050F402
S11310409091270291609093270290E298279093C1
S113105010088DE7809309030C94D807CF93CFB77A
S1131060F89480913A02823029F58091100281111E
S113107021C0809112028F3FB1F0E82FF0E0E65CCE
S1131080FC4F9081909312029F3F11F490931102B0
S11310909FEF90838093100281E080933A0283E073
S11310A00E94CF0204C08093100210923A02CFBF74
S11310B080E002C0CFBF81E0CF9108958CB58F7BD3
S11310C08CBD229A2398219A0E94A9018CB5806133
S11310D08CBD8CB58F778CBD8CB5877F8CBD8CB562
S11310E08B7F8CBD8CB580648CBD8DB581608DBDCE
S11310F08CB58C7F8CBD0895CF93CFB7F894809135
S11311003902823041F580910D02811124C0809111
S11311100F028F3FB1F0E82FF0E0EE5CFB4F9081BF
S113112090930F029F3F11F490930E029FEF9083D0
S113113080930D0281E0809339028CE00E94CF02FB
S113114004C080930D02109239028CB58F7B8CBD44
S1131150CFBF80E002C0CFBF81E0CF910895CF928E
S1131160DF92EF92FF92CF93C82F6A017B010E9416
S1131170200329E0C29FF0011124E25FF94F60834C
S1131180718382839383C482D582E682F7828085C9
S113119081608260808789E0CF91FF90EF90DF903B
S11311A0CF900C94CF020F931F930E9420038B01C6
S11311B09C0180910E0690910F06A0911006B091AB
S11311C0110640913E0250913F026091400270919D
S11311D04102411551056105710509F442C0FFB78B
S11311E0F894E091D707E0FD33C0081B190B2A0BD4
S11311F03B0B0417150726073707C8F4401B510B90
S1131200620B730B80913E0290913F02A0914002C9
S1131210B0914102801B910BA20BB30B80933E0251
S113122090933F02A0934002B093410214C081E026
S113123090E0A0E0B0E080933E0290933F02A09340
S11312404002B093410241E050E060E070E003C02E
S1131250EE7FE093D707FFBF80E01F910F910C94BE
S1131260AF08809116068D7F809316061F910F910B
S11312700895CF9381E090E090933D0280933C02E7
S11312801092460280913E0290913F02A09140024A
S1131290B0914102892B8A2B8B2BE9F0CFB7F894BC
S11312A080E090E00E942C04CFBF10923E02109286
S11312B03F02109240021092410210924202109298
S11312C04302109244021092450280E00E944304BB
S11312D0CF910C94D308CF9108958433924111F4A3
S11312E00C9439090895CF92DF92EF92FF92809186
S11312F0000290910102A0910202B0910302B695FE
S1131300A7959795879580938C0390938D03A093CD
S11313108E03B0938F030E946D02C0908C03D09013
S11313208D03E0908E03F0908F03A70196010E9435
S1131330FA28AB01BC014C0D5D1D6E1D7F1D409351
S11313408C0350938D0360938E0370938F031092DC
S1131350C61482E0FF90EF90DF90CF900C94AF081A
S1131360BC0181E0809338048093D5078091840088
S1131370909185000C94B5040F931F93CF93DF9342
S11313808C01EB010E946D02CB01B8010E94D228AE
S11313908C0F9D1FAC0160E070E084E0DF91CF9181
S11313A01F910F910C94AF08CF93DF931F92CDB789
S11313B0DEB789830E94ED01898180688EBD80E05B
S11313C00E94E6010E94E10189830E94A7018981AC
S11313D00F90DF91CF9108951F93CF93DF931F92C6
S11313E0CDB7DEB7182F69830E94ED01912F906C61
S11313F09EBD89810E94E6010E94E1010F90DF9168
S1131400CF911F910C94A701AF92BF92CF92DF921C
S1131410EF92FF920F931F93CF93DF93282F30E027
S11314205EE0859FF0011124EF57FA4F858182FF1A
S113143003C062838B7F85838EE0829FF001839F4C
S1131440F00D1124EF57FA4F8281962F981B628377
S113145083818F5F838386E08683992361F084810F
S11314608150890F84839B3030F0148281E0838320
S11314701782118610868EE0829FF001839FF00D03
S11314801124EF57FA4F8381833008F486C000811A
S1131490118120E030E04EE059E0D52ECAE0D0E0E2
S11314A0EE24E3946EEFF62E7AE0C72EBB24B394B9
S11314B0429FF001439FF00D1124EF57FA4F8081B2
S11314C091818017910709F062C0858180FF5FC018
S11314D09681992311F0915096839781992311F065
S11314E0915097839681911108C09781911105C0FD
S11314F08B258583118610861EC082608583838137
S11315006481680F633008F463E0A0845FEF859F13
S1131510C001112470E00E94E628CB01992759E00C
S1131520A59E800D911D11240596BE010E94E628FA
S1131530608713821482A18460856623C1F0AA2087
S1131540B1F0C70170E00E94D228C69EC001C79EB8
S1131550900D11246A2D70E00E94D2286A507109FE
S11315606F3F710529F020F06CE370E001C06CE37B
S1131570A285B385DA9EC001DB9E900D11240596E9
S1131580860F911DBE010E94D228738762872F5F48
S11315903F4F2A30310509F08BCFDF91CF911F9156
S11315A00F91FF90EF90DF90CF90BF90AF90089590
S11315B0662319F00E94E2031EC05FB7F8944091BD
S11315C0781DE42FF0E0EE0FFF1FE55BFA4F20815A
S11315D031818217930771F4842F8F5F8C3018F454
S11315E08093781D02C01092781D8091DA028111D7
S11315F01092DA025FBF81E00C94CF02CF92DF92A7
S1131600EF92FF92CF93C82F6A017B010E942003BF
S113161029E0C29FF0011124E25FF94F60837183D6
S113162082839383C482D582E682F78280858E7F0B
S11316308260808789E0CF91FF90EF90DF90CF9018
S11316400C94CF02CF93DF93FC01928180E021813F
S1131650822B85FF15C087749C7C8134984881F463
S1131660978180E02681EC01C22B0E94460321E091
S113167030E0C817D90711F020E030E0C90102C0FA
S113168080E090E0DF91CF910895CF92DF92EF92C6
S1131690FF9269017A01623018F4262F30E002C00B
S11316A022E030E0ECE2F8E0A901BC01CF010E94A5
S11316B09429C0922202D0922302E0922402F09252
S11316C0250280912C0890912D089093E502809337
S11316D0E40283E1FF90EF90DF90CF900C94CF026F
S11316E0CF92DF92EF92FF920F931F93CF93CFB7D6
S11316F0F8942091B3009091B20087B3291711F0A8
S113170081FF02C0CFBF78C080911F04811102C045
S113171086EE3AC00E9420030091DD021091DE02A1
S11317202091DF023091E002C090B31BD090B41B33
S1131730E090B51BF090B61B601B710B820B930BF2
S11317406C157D058E059F0528F010921F0486EE0A
S113175031E01BC0D701C601800F911FA21FB31F28
S11317604091E9025091EA026091EB027091EC021F
S1131770841B950BA60BB70B873E9105A105B105FC
S113178038F6823008F482E030E0282F215090911E
S1131790B60093FDFCCF9091B200291301C0282F0D
S11317A08091E9029091EA02A091EB02B091EC02DF
S11317B0AC01BD014F5F5F4F6F4F7F4F420F511D13
S11317C0611D711D481759076A077B0710F4282FFC
S11317D020958091B60083FDFCCF2093B300CFBF4A
S11317E0332351F088E0CF911F910F91FF90EF9038
S11317F0DF90CF900C94CF02CF911F910F91FF9067
S1131800EF90DF90CF900895EF92FF921F93CF93C4
S1131810DF9300D0CDB7DEB7182F7A01233708F055
S11318207EC0F701528140E08181482BFA01E774C0
S1131830FC7CE134F84841F0407355274164586812
S1131840F701418388E88283235FF701208369835A
S11318507A830E944603F701808791879FB7F894A3
S1131860809113029FBF84831582138769816683E5
S11318707A8177838FB7F89490913A02911110C0CE
S113188092E090933A02109210028FBF8FE3828706
S1131890C7010E940003182F882309F441C00CC01B
S11318A08FBFF0922103E0922003FFB6F894809159
S11318B03A0281110FC003C00E942E0831C081E09A
S11318C080933A021092100283E00E94CF02FFBE7E
S11318D010E026C080913A038F3F49F481E090E004
S11318E020911102222329F080E090E002C081E0DF
S11318F090E0811111C0809112028F3F19F410926F
S1131900120206C0E0911102F0E0E65CFC4F108286
S11319101092110210E001C015E0FFBE01C016E0F4
S1131920812F0F900F90DF91CF911F91FF90EF9037
S11319300895409105024F5F437054E0242F30E036
S1131940F901EE0FFF1FE159FA4F80819181892B34
S113195091F0E42FE695E695E695F0E0EF54F44E29
S1131960808190E0642F677002C0959587956A9591
S1131970E2F780FF07C02F5F3F4F422F4370515063
S1131980E9F61DC040930502E0910502E430D8F465
S1131990F0E0EE0FFF1FE159FA4F0190F081E02DC6
S11319A020812D50778160E08681682BAF0183858B
S11319B00E94040C882339F085E10C94CF0284E062
S11319C080930502E1CF0895CF93DF93FB01242F89
S11319D0C82FD0E0CC0FDD1FC159DA4F688179815F
S11319E0672BF1F4F983E883942F935F90839091AC
S11319F00502943010F480E014C09385778160E090
S1131A003681632B80930502AF01892F0E94040C59
S1131A10882389F394E0909305021982188201C007
S1131A2085E0DF91CF910895CF93DF93EC0180910E
S1131A30DC02882309F450C08091920381114CC0C8
S1131A4081E080939203C0935802D0935702C43329
S1131A5082E1D80749F44091220250912302609117
S1131A6024027091250203C040E050E0BA01409383
S1131A705C0250935B0260935A027093590289E5A9
S1131A8092E00E94EF01672B682B692B99F0C43315
S1131A90D24121F0C0E020E030E003C0C2E02CE2FB
S1131AA038E0EDE5F2E04C2F50E0B901CF010E949F
S1131AB0942901C0C0E08FEF8093510280935202B9
S1131AC080E6809356024C2F4A5F6BE472E080E01C
S1131AD0DF91CF910C94E40CDF91CF910895CF93D3
S1131AE0CFB7F8948091390281110BC081E08093C3
S1131AF0390210920D028CE00E94CF02CFBF80E029
S1131B0024C0809132048F3F49F481E090E0209119
S1131B100E02222329F080E090E002C081E090E0F0
S1131B20811111C080910F028F3F19F410920F029E
S1131B3006C0E0910E02F0E0EE5CFB4F10821092C2
S1131B400E0280E001C085E0CFBFCF910895CF930E
S1131B508FB7F89490910D02911106C090913902BB
S1131B60923011F48FBF13C08FBFCFB7F894809118
S1131B70390281110EC082E08093390210920D0265
S1131B800E945E08CFBF0E94A9010E94A70181E0C4
S1131B9004C0CFBF0E946F0D80E0CF9108952F92B3
S1131BA03F924F925F927F928F929F92AF92BF9299
S1131BB0CF92DF92EF92FF920F931F93CF93DF9315
S1131BC0EC0180914702811142C080914B1D853008
S1131BD0F1F58091081B81113AC00E94A70D88235A
S1131BE0B1F1FE01EE57FF4F808182FF06C0FE0176
S1131BF0ED57FF4F61816F7001C060E08091C204B6
S1131C00681731F06093C204606885E00E94EC09B3
S1131C109A8180E02981822B87749C7C8134984846
S1131C20C1F486E00E94D4098F7190E040912804A9
S1131C3020918B0330E0240F311D43E03595279527
S1131C404A95E1F72817390724F40E947C0885E0B7
S1131C5095C069E082E00E94EC090E9494051B0192
S1131C602C017E018FEFE81AF80A1881FE01EE5765
S1131C70FF4F8081712E7A947A9484FF08C0012FDB
S1131C8005509E012E193F09020F701A02C0072D3C
S1131C90712C81E00E94D4098F71893029F066E0AB
S1131CA082E00E94EC09D1CF8FB7F8942F9A8090EC
S1131CB08400909085008FBF0E94A5010E94ED01D1
S1131CC080E68EBD812F0E94E6016701102F1E0D54
S1131CD0F60181916F010E94E6011C11F9CF0150B8
S1131CE010E00F5F1F4F0E0D1F1DF2EA8F0E911CA7
S1131CF082189308AA2497FCA094BA2C820C931CF3
S1131D00A41CB51C7720F9F0C8010E94EF016B01F7
S1131D107C01DC01CB0188199909AA09BB09F801E6
S1131D2083839283A183B083512CF801E50DF11DC7
S1131D3080810E94E60153945710F7CFF801C382C3
S1131D40D282E182F0820E94E1010E94A70166E052
S1131D5082E00E94EC09FE01EE57FF4F8081826011
S1131D608083C258DF4F88829982AA82BB8286E030
S1131D7080934B1D84E08093470280E0DF91CF91F4
S1131D801F910F91FF90EF90DF90CF90BF90AF9095
S1131D909F908F907F905F904F903F902F900895E9
S1131DA04F925F926F927F92BF92CF92DF92EF92A7
S1131DB0FF920F931F93CF93DF93E0E0F0E049E0AD
S1131DC04E9FE0014F9FD00D1124C25FD94FB884BC
S1131DD0B1FE5FC1488059806A807B800C811D817F
S1131DE02E813F816B017C01C418D508E608F708F1
S1131DF0C016D106E206F30608F44BC1B0FE04C0D7
S1131E00E894B1F8B8860AC0D901C801840D951DBB
S1131E10A61DB71D88839983AA83BB83E33009F485
S1131E20D5C028F4E130E9F1E23039F47EC0E43081
S1131E3009F4D9C0E53009F4DEC04091120650918E
S1131E401306609114067091150680913E029091DC
S1131E503F02A0914002B09141020097A105B10553
S1131E60E9F084179507A607B707C1F480914602E5
S1131E7081110BC09FB7F894809180058160809395
S1131E8080059FBF87E10E94CF0280E090E00E941E
S1131E902C0480E00E944304109246020E94D3085E
S1131EA0FDC08091E4029091E50201969093E502D1
S1131EB08093E40283E10E94CF028091D0028823C0
S1131EC009F4ECC08091E4029091E50290932D080E
S1131ED080932C088091220290912302A0912402E5
S1131EE0B0912502CD01AA27BB270196A11DB11DE2
S1131EF02091160230911702DC0199278827820F5E
S1131F00931FA11DB11D8093220290932302A093DD
S1131F102402B093250284E392E10E94140D0E94EE
S1131F20390986E10E94CF02B9C080911B0288233F
S1131F3009F4B4C080911A02882309F4AFC08091D7
S1131F40C614811120C00E941A038AE10E94CF02A4
S1131F5040910002509101026091020270910302CB
S1131F6080918C0390918D03A0918E03B0918F0387
S1131F70481B590B6A0B7B0B81E08093C61482E0EB
S1131F800E94AF088BC08091000290910102A09141
S1131F900202B0910302880F991FAA1FBB1F813050
S1131FA020ED920727E0A207B10508F404C080E001
S1131FB090EDA7E0B0E08093000290930102A0931B
S1131FC00202B09303020E94730968C080911B024D
S1131FD0882309F463C080911A02882309F45EC03F
S1131FE00E941A035BC0809121028F7E809321029C
S1131FF00E941D0353C00E94E203809126028111B6
S11320004DC08AEA8093261B8093251B8FEF809313
S1132010281B8BEB8093271B8091210281FF4EC0EC
S11320208DE38093111B9091160280911702909377
S1132030221B8093211B8091E302982F9F5F909332
S1132040E3028093231B8EEE8093241B10921E1BAD
S1132050E091471DF091481D309781F181E19BE1AA
S11320609183808312828EE18383CF010E940E04C8
S1132070811124C08091210282FF03C084FF0E9449
S11320801D031092481D1092471D81E08093260283
S113209005C03196E630F10509F092CE89E0DF9172
S11320A0CF911F910F91FF90EF90DF90CF90BF9051
S11320B07F906F905F904F900C94CF021298EECF68
S11320C00F931F93CF93DF938C01E0912002F0E0F4
S11320D0EE0FFF1FEA55FB4EC081D181662329F024
S11320E06CE170E08CE190E02FC08091210283FFCD
S11320F042C0F801EE57FF4F808180FD3CC0D801FB
S113210017969C91179780E016962C91822B0E942B
S113211045028F3F71F0BEE08B9FC00111248F57A1
S11321209A4FFC0125852F5F2587253010F00E94EA
S113213046070E941A038B8181508B83882351F0B8
S113214067E070E087E090E0DF91CF911F910F91FD
S11321500C94BC090E948603809121028F7E809397
S1132160210267E070E087E090E00E94BC098A8168
S113217081116CC02DC00E948603809121028F7E44
S11321808093210267E070E087E090E00E94BC0940
S1132190D80117969C91179780E016962C91822B64
S11321A00E9445028F3F89F0BEE08B9FF00111240D
S11321B0EF57FA4F84858F5F848785858F5F858786
S11321C0853018F0CF010E9446078A81811107C02B
S11321D0D093481DC093471D1092260242C0088127
S11321E019818091D202843031F4C8010E944E03D7
S11321F083700E94AB012091D20230914A05822F54
S113220090E0830F911D8370992735E0389FF0018A
S1132210399FF00D1124E65FFC4FD80150969C9134
S1132220509780E051963C915197832B9183808302
S113223052968C91529782831D968C911D9784831C
S113224053968C9183832F5F2093D2028881998146
S11322500E94A003CE01DF91CF911F910F910C94A6
S1132260BD03DF91CF911F910F910895282FCB01CA
S1132270213031F028F0223031F0233081F406C0CF
S1132280109292030895642F0C94601023E0663931
S1132290720729F48091190281111092190208958C
S11322A0EF92FF921F93CF93DF931F92CDB7DEB7C8
S11322B0109105021430D8F4E12FF0E0EE0FFF1F67
S11322C0E159FA4FE080F180E816F90681F41182B1
S11322D0108269830E94990C4981B701812F0F9064
S11322E0DF91CF911F91FF90EF900C9436110F90D6
S11322F0DF91CF911F91FF90EF9008952F923F921D
S11323004F925F926F927F928F929F92AF92BF9201
S1132310CF92DF92EF92FF920F931F93CF93DF93AD
S1132320CDB7DEB7A1970FB6F894DEBF0FBECDBF11
S1132330E82FF0E0EB31F10510F00C946D22EA592E
S1132340FF4F0C9473298FB7F8942091DB0290917E
S11323500D08291307C090912904911103C010920C
S1132360B01BA1C08FBFE0910D08F0E0EE0FFF1F7E
S1132370EE5DFC4F0190F081E02D7081672F6D5070
S113238060937F0503851781D680918580E0208541
S11323904C01822A940180E04481842BAF014B5F7D
S11323A05F4F97E0DA011D929A95E9F7208737830A
S11323B08287E0910D08F0E0EE0FFF1FEE5DFC4F09
S11323C00190F081E02D633710F00C948B1E80E0B7
S11323D08D298683158303876187809132029091CA
S11323E03302892B11F00C948B1E2FB7F89485E0DF
S11323F08093300210922F02F0933502E09334025E
S113240082E090E0909333028093320210922D0286
S113241010922E027150709331022FBF8FB7F8942F
S113242090910A088FBF9A3011F40C9418229FB728
S1132430F89480913B04811106C081E080933B04B1
S113244010923C0401C080E09FBF882311F40C94D7
S113245018220E94FC03A1960FB6F894DEBF0FBEAB
S1132460CDBFDF91CF911F910F91FF90EF90DF903F
S1132470CF90BF90AF909F908F907F906F905F9020
S11324804F903F902F900C94DA038FB7F8942091DB
S113249048029091781D291309C09091DA02911194
S11324A005C01092D1028FBF0C946D228FBFE091B2
S11324B0781DF0E0EE0FFF1FE55BFA4F0190F0810D
S11324C0E02D2185758160E08681682B978180E00D
S11324D030858C01032B8385528140E09181492B07
S11324E04073552741645868418398E89283AF014B
S11324F04E575F4FDA011C9200871187AF010E948B
S1132500040C811108C09FB7F89482B124E082279B
S113251082B90C94061F0E94E20381E0A1960FB6D3
S1132520F894DEBF0FBECDBFDF91CF911F910F9105
S1132530FF90EF90DF90CF90BF90AF909F908F90DF
S11325407F906F905F904F903F902F900C94CF02AC
S11325508091081B882309F4DFC080914B1D8130D2
S113256009F4DAC00E94A70D882309F4D5C08FB7F7
S1132570F89400912D0410912E048FBF1092081B23
S11325808FE00E94D409F82E80914702833011F025
S1132590873031F485E080934B1D88E080934702B7
S11325A0F2FE56C080914702863011F41092470221
S11325B08091470281114CC0B4E0FB123DC086E01B
S11325C00E94D4098F7190918B03292F269526950B
S11325D0921B980F90938B032091E1023091E202B9
S11325E0F901EE57FF4F90819B7F98609083F9012A
S11325F0ED57FF4F81830E949405A801475051096C
S1132600461B570B4A01AA2497FCA094BA2CE091CC
S1132610E102F091E202DF01AE57BF4F2C9122603C
S11326202C93E258FF4F860E971EA81EB91E808277
S11326309182A282B38209C0E091E102F091E202A8
S1132640EE57FF4F8081857F808385E0809347022A
S1132650F3FE62C080914702843009F04BC085E0EC
S113266080934B1D109247028091E802833019F445
S11326701092E80251C0E091551DF091561D9281CF
S113268080E02181822B85FF10C087749C7C81347B
S1132690984859F4978180E02681AC01422B9A0135
S11326A081E090E02F3F3F4F11F480E090E08823D9
S11326B0A9F08091D507811111C012E0109338045C
S11326C081E08093D507809184009091850069E929
S11326D073E00E94B5041093E8021EC01092E80251
S11326E0109294031092B71B84E0809393030E948A
S11326F0FD0212C0853081F486E00E94D4099091D5
S11327002804292F26952695921B8F71980F909354
S1132710280489E08093470280914702882309F4C2
S11327204AC2893009F0B5C10E94ED0180E28EBD34
S11327300DB407FEFDCF8EB51EBC0DB407FEFDCF54
S11327402EB5233008F47CC0822F90E080389105A8
S11327500CF076C01EBCE091E102F091E2027F0130
S11327606FEFE61AF60A2083C22ECA94CA9476E062
S11327707C1518F4F7E0DF2E01C0DC2C8701812CD6
S1132780912CBD2CBE0C80E00E94E601D8018D93F3
S11327908D01682FC4010E9404024C01B012F3CFD2
S11327A08D2D815090E001968E0D9F1DE091E102E8
S11327B0F091E202328120E04181242B27703327FB
S11327C02230310529F42091E8022230B9F50BC0FA
S11327D03FB7F89421E04091C014433008F020E062
S11327E03FBF222359F1FC2CFD188C01F80E0AC0BE
S11327F00E94E601F80181938F01682FC4010E94B1
S113280004024C0180E0F012F3CF0E94E601682F2D
S1132810C4010E9404028C0180E00E94E601682F3A
S1132820C8010E9404027C010E94E101E091E102DE
S1132830F091E202ED57FF4F808305C00E94E10151
S1132840EE24E394F12C0E94A70115E010934B1D94
S113285010924702EF2809F0A5C1C090E102D09080
S1132860E202D60112969C91129780E011962C9167
S11328701197822B877099272091E802029721F5FE
S1132880223009F001C1E091551DF091561D1396B7
S11328909C9183819813F8C080916F008D7F809301
S11328A06F001092D507EE57FF4F808181608083BF
S11328B01092E802109294031092B71B84E0809364
S11328C093030E94FD02E0C0211119C0C6010E94B9
S11328D0220B8823A1F01093C50482E08093C604E0
S11328E01092C704F60183818093C80485EC94E0B8
S11328F00E94CF0D811103C083E08093E802009110
S1132900840010918500C6010E94220B882311F0D7
S1132910045E1C4F10936E0500936D058091840036
S1132920909185004801881A990AC401181619065D
S11329308CF42091940321110AC02091D507211110
S113294009C00E94B00980E88093940303C0206802
S113295020939403D60119963C91199720E0189678
S11329608C91282B1091ED02A12FB0E0FD01EE0F08
S1132970FF1FE856F44E808191817091D60782172B
S1132980930759F4A15BB24E8C91871709F44AC09E
S11329907F5F7093D6077C931DC0A8E9BBE1EFE489
S11329A0FDE180E090E000E060E0182F4D915D9142
S11329B04217530789F48093ED022091D607DC0176
S11329C0A15BB24E8C91821769F1822F8F5F809345
S11329D0D6078C9360E80DC04191872E841A681540
S11329E010F4082F682D019685309105F1F60C94AA
S11329F01D228091D607982F9F779F3719F0109149
S1132A00ED0210C06F37D8F3EFE4FDE1282F2078F2
S1132A1090819F679813208331963DE1E435F30755
S1132A20B9F7EDCFD60113968C91E12FF0E0DF01D9
S1132A30AD58B24E9C91EF53FB4E90FF04C0908171
S1132A40891303C021C091609C9380831FB7F894BD
S1132A508091C0148330B8F4E091AF1BE80FE330E9
S1132A6008F0E350F0E0EE0FFF1FEC52FD4FF08052
S1132A700181D182C0828F5F8093C01486E00E945E
S1132A80CF02CF2CD02E1FBFD092E202C092E1021F
S1132A9089C0982F9150933008F06DC091509230B6
S1132AA0E0F510914B1D1130A9F48091D5078111E7
S1132AB034C00E94A50183E0809338041093D507A5
S1132AC080918400909185006BE273E00E94B504CC
S1132AD082E03CC0833009F51330F9F40E94A70D5D
S1132AE08823D9F08FE00E94D4098091810080640A
S1132AF08093810080E286BB80916F008062809326
S1132B006F0060911F03606688E00E94EC0966E034
S1132B1082E00E94EC0984E019C080914702815050
S1132B208230B0F480914B1D853091F40E94A70D42
S1132B30882371F063E082E00E94EC0980916F00C9
S1132B408F7D80936F001092081B83E080934B1D50
S1132B5080914702813041F490914B1D933011F5DF
S1132B602F9A80934B1D1BC08230E1F480914B1D42
S1132B708330C1F414C08730A9F40E94A70D8823C0
S1132B8089F060911F03606688E00E94EC098091DF
S1132B904B1D853021F484E080934B1D03C088E0F5
S1132BA08093470280914702883029F410924702AB
S1132BB084E00E94CF028091470281111DC0809160
S1132BC04B1D8530C9F48091081B811115C080917B
S1132BD0E802811111C08091940381110DC080918C
S1132BE0D507811109C080919303823029F481E0D3
S1132BF0809393030E94FD0280914702811103C0D8
S1132C008AE00E94CF028091D507823011F00C94A3
S1132C106D221092D50720913804223009F49DC00A
S1132C20233009F4A2C0213011F00C946D2280915C
S1132C30840090918500E0906D05F0906E05E81A8F
S1132C40F90A80919403803859F410929403809186
S1132C509303823011F00C946D222093930363C08C
S1132C6087FF03C01E141F0404F100919003109108
S1132C7091038091E802811118C0C8010E94CF0D10
S1132C80282F811113C0F801EE57FF4F80818E7FEA
S1132C90808381E08093E8021093561D0093551DB4
S1132CA083E0809394030C946D2225E08091940337
S1132CB0982F9F77913011F58078826080939403E8
S1132CC080E198E00E94DA04A1960FB6F894DEBF82
S1132CD00FBECDBFDF91CF911F910F91FF90EF9069
S1132CE0DF90CF90BF90AF909F908F907F906F9028
S1132CF05F904F903F902F900C94B00987FF0CC0C9
S1132D001E141F044CF480E880939403C7012F8F92
S1132D100E94B0092F8D02C0109294032093B71B18
S1132D2081E080939303A1960FB6F894DEBF0FBEA3
S1132D30CDBFDF91CF911F910F91FF90EF90DF9066
S1132D40CF90BF90AF909F908F907F906F905F9047
S1132D504F903F902F900C94FD021092E802109235
S1132D6094031092B71B84E0DCCF80914B1D82301A
S1132D7019F420934B1D09C080914702863029F431
S1132D801092470281E00E94D409A1960FB6F894EC
S1132D90DEBF0FBECDBFDF91CF911F910F91FF908A
S1132DA0EF90DF90CF90BF90AF909F908F907F90E7
S1132DB06F905F904F903F902F900C94FA028FB7D2
S1132DC0F89492E090933A028FBF8091100281119F
S1132DD00C946D2280912003909121032FE3FC0138
S1132DE022870E940003182F882311F40C946D226B
S1132DF00E942E08E0902003F09021030CC18091E2
S1132E00930310929303853009F0B9C081E0809355
S1132E101B0280911A0281110E946D02809121028D
S1132E2084608093210280911E0281110E941D03FF
S1132E301092DA0280913E0290913F02A0914002EA
S1132E40B0914102892B8A2B8B2BC1F41092420240
S1132E5010924302109244021092450210924602CC
S1132E6080E00E9443041FB7F89480E090E00E9441
S1132E702C041FBF0E94D30810E001C015E00E947B
S1132E803909111103C081E08093D00281E080935D
S1132E90DC021092E5021092E402809116029091F5
S1132EA017020A9739F440ED57E060E070E081E0E2
S1132EB00E94FE0A809121028260809321020E9476
S1132EC0460390932B0880932A0880911A0281115B
S1132ED018C081E080931A0280E890E0A0E0B0E09E
S1132EE08093000290930102A0930202B093030224
S1132EF00E94730940E050E260E070E083E00E94C9
S1132F00FE0A80911602909117020197C9F48091EC
S1132F10091B90910A1B21E02093D30220912A08D7
S1132F2030912B0830930A1B2093091B10920C1B21
S1132F3010920B1B019611F00C946D220C945820E6
S1132F4040ED57E060E070E085E0A1960FB6F8949C
S1132F50DEBF0FBECDBFDF91CF911F910F91FF90C8
S1132F60EF90DF90CF90BF90AF909F908F907F9025
S1132F706F905F904F903F902F900C94FE0A863094
S1132F8039F410921B02809121028B7F0C944D2006
S1132F90873011F40C946D222BC090919303E09030
S1132FA00B08F0900C08913049F58091D8078F5F99
S1132FB08093D807863010F580919403811112C054
S1132FC08091D50781110EC0F0929103E092900395
S1132FD0909394038BED91E10E94DA040E94B0096E
S1132FE080E001C085E08093B71B811105C083E0B8
S1132FF0809393030C946D2282E0FACF1092930392
S11330001091B71BD7011A968C918F3311F00C9441
S11330106D220E942E08612FC7010E945011612F5A
S1133020C701A1960FB6F894DEBF0FBECDBFDF91E6
S1133030CF911F910F91FF90EF90DF90CF90BF90B1
S1133040AF909F908F907F906F905F904F903F9044
S11330502F900C94D80A40E8242E312C412C512C6A
S11330605EE0952E8FB7F8949091C014911101C031
S11330701ACAE091AF1BF0E0EE0FFF1FEC52FD4FB8
S1133080A080B180B9A2A8A28FBFD5011A969C9145
S11330901A9717968C9117979F3309F07BC31B9649
S11330A02C911B97FC908A83198216968C91098126
S11330B01A81082B2F8F0E9446032F8D081719079A
S11330C041F081E090E00F3F1F4F29F080E090E055
S11330D002C081E090E0882309F43EC388A199A14D
S11330E02F8F0E9492072F8D203709F49AC030F455
S11330F0203641F0213609F04AC36BC0213709F06C
S113310046C333C2E8A1F9A1F485FC831B82A8A1BC
S1133110B9A11D968C911D970B811C81082BCD01A3
S11331200E960E94EF019B01AC010433B2E11B0730
S113313049F48091220290912302A0912402B0913B
S1133140250203C080E090E0DC016091DC0266238C
S113315009F433C30097A105B10551F421153105D4
S11331604105510559F00433E2E11E07E9F415C0A5
S1133170211531054105510509F416C059016A01AB
S1133180A81AB90ACA0ADB0A1A141B041C041D046F
S11331907CF40433F2E11F0739F46F2D635188A1E5
S11331A099A142960E94450BC8010E946D0905C36E
S11331B0281739074A075B0751F40433124109F011
S11331C0FCC2809146028F5F80934602F6C2C8011A
S11331D025C08091DC02882309F4EFC2A8A1B9A11B
S11331E01C96BC91BE831D82E8A1F9A18585AD80A2
S11331F0BE80A82AC5018433924109F0DEC28091C1
S1133200220290912302A0912402B0912502892BDD
S11332108A2B8B2B09F4D1C284E392E10E94140D12
S1133220CCC2A8A1B9A11796BC91B8871F82E8A106
S1133230F9A18681AF80B884A82AC501019679F0E6
S1133240A8A1B9A18C918D501C969C919F70292F97
S1133250220F290F821B833708F0AFC28AC0E8A16E
S1133260F9A1F185FA871986A8A1B9A118968C91BC
S1133270189709851A85082B1C968C90BFE08B2221
S1133280C8010E9445028F3F21F0E8A1F9A165859C
S113329016C0E6E8F5E0F12C808180FF07C0F394C6
S11332A03E962AE0A22EFA10F7CF0DC0B8018F2D5A
S11332B00E94FD04A8A1B9A11D966C918F2D0E94B6
S11332C0040A0C94352287E30E941205F82EBFEFFE
S11332D08B1709F4B5CF989EF0011124EF57FA4FDC
S11332E0808191810E944C05B8018F2D0E94FD04BC
S11332F00C943522E8A1F9A180818D50833728F4FC
S11333007F01FCE0EF0EF11C02C0E12CF12CE80E71
S1133310F11C23E0829EE018F10811240E94460368
S11333206C01A12CB12CF501EE0FFF1FEA0DFB1D62
S1133330EE0DFF1D30813C871B8681814B855C85AA
S1133340482BCA018C159D0571F47280C8010E9436
S113335045028F3F41F0989EF0011124EF57FA4F38
S1133360718656E057836FEFA61AB60AA814D8F2EE
S113337067CFC8A0D9A07CE0C70ED11CC114D1046A
S113338031F0E8A0F9A09EE0E90EF11C02C0E12CA6
S1133390F12C873009F011C2A8A1B9A119963C916A
S11333A0199718962C911897C114D10419F0FD019E
S11333B03E9602C0E0E0F0E08080F701F181FE87F4
S11333C01D86D70112968C911297AD84BE84A82ACB
S11333D0C501019609F4B1C0388B1F860F85188981
S11333E0022B1396BC91BA8B198AF7018481A988A0
S11333F0BA88A82AC501892B99F5C8010E944502FB
S11334008F3F09F5E6E8F5E080E0908190FF05C084
S11334108F5F3E968A30C9F702C0B80112C080E0BF
S11334200E941205B82E2FEF821769F0989EF001C2
S11334301124EF57FA4F808191810E944C05B80105
S11334408B2D0E94FD04C8010E9445028F3F41F06C
S1133450989EF0011124EF57FA4F85818860858387
S1133460D7011396BC91BC8B1B8AF7018481AB886E
S1133470BC88A82AF181FE8B1D8AD70112968C91F3
S1133480ED88FE88E82AC8010E9459023C01C8015F
S11334900E9432058A3049F19091E702891317C0DE
S11334A0B2E36B16710408F528E0829FF001112441
S11334B0E55CFC4F11830083F382E282B582A4822F
S11334C031E0368317828F5F8093E7020EC048E0B5
S11334D0849FF0011124E55CFC4F11830083F38287
S11334E0E282B582A48251E0568380910402811164
S11334F024C0FF24F39486FEF12CC8010E943205F7
S11335009091E702891738F468E0869FF00111244E
S1133510E55CFC4FF78280910E1B882329F0F110A3
S113352003C00E941A0309C08091091B90910A1BD1
S11335308017910711F4F110F4CFCD2821F0E8A100
S1133540F9A13E9602C0E0E0F0E080818078803806
S113355009F033C12092000230920102409202022B
S1133560509203020E94730928C1A8A1B9A15396DD
S11335700C9153971D961C911D971F5F1D961C93CC
S11335801D978F2D8D50833708F017C1CD010E94F0
S11335904E039091D202891708F40FC140911E0284
S11335A0442309F467C750912002E8A1F9A1F089E6
S11335B0F88F1F8AA8A1B9A151968C912F89388DB3
S11335C0282B4150E52FE40FED3008F0ED50F0E0EA
S11335D0EE0FFF1FEA55FB4E0190F081E02D0190A4
S11335E0F081E02DB089BA8F198E8189A98CBA8CAB
S11335F0A82AC5018217930779F49289A8A1B9A1D1
S113360052968C91981308C08585811305C081E07A
S113361090E06389601711F080E090E08111CDC0E3
S11336204111CFCF27C70E3E09F0C7C00E94DA036D
S1133630C4C09091C404992309F4BFC02091C30469
S1133640222309F4BAC08091B21BE82FF0E0EE0FF8
S1133650FF1FE95AF24EE080F1801182108221505E
S11336602093C3048F5F8093B21B8C3011F41092AB
S1133670B21BE114F10409F4A0C080912A04E82FDC
S1133680F0E0EE0FFF1FEE5EF74F00811181118213
S1133690108291509093C4048F5F80932A048C30DD
S11336A011F410922A040115110509F486C0F801D9
S11336B0B5E88B2E11928A94E9F788A199A18258D2
S11336C09F4FFC0187E0DF011D928A95E9F7A8A0CE
S11336D0B9A0F701B182A0828FEF82838EE1838348
S11336E0C7010E940E0481112DC08091091B909185
S11336F00A1B8F3F2FEF9207F1F02091D302213064
S113370009F4BEC6E0900B1BF0900C1B0E945902FA
S11337108E0D9F1DB7C62092000230920102409286
S11337200202509203020E9473096CE170E08CE182
S113373090E00E94BC0980913A0681FD0AC00E9473
S11337401D0307C0C8010E94A003C7010E94BD0356
S113375034C019A308A331C088A199A12F8F0E9456
S113376092072F8D213799F4A8A1B9A11C968C91A9
S11337708078803851F42092000230920102409205
S11337800202509203020E94730988A199A188A39E
S113379099A313C08C8F1B8EE8A1F9A186810B8D90
S11337A01C8D082B0E9446030817190719F00F3FB8
S11337B01F4F19F48FB7F8948FBF9FB7F894809177
S11337C0AF1BE82FF0E0EE0FFF1FEC52FD4FA8A057
S11337D0B9A0B182A0828F5F833018F48093AF1BAD
S11337E002C01092AF1B8091C01481508093C0140A
S11337F09FBF38CC0E946D022FB7F89470930F08C6
S113380060930E082FBF69C680911E03811141C0C9
S11338104091A31B5091A41B6091A51B7091A61B02
S1133820EFB7F8948091B31B9091B41BA091B51B92
S1133830B091B61B0091DD021091DE022091DF02EF
S11338403091E002800F911FA21FB31FEFBF40937E
S1133850A31B5093A41B6093A51B7093A61B1092EB
S11338601E032FB7F89431E030931F048093DD02D8
S11338709093DE02A093DF02B093E0024093B31B67
S11338805093B41B6093B51B7093B61B2FBF0E945B
S1133890700B0E94200348C00E9420032FB7F894A5
S11338A010921F042FBF20E044244A94542C642C0B
S11338B0EFE77E2EE0E0F0E039E03E9FD0013F9F4D
S11338C0B00D1124A25FB94F18964C91189741FF7F
S11338D01FC0CD90DD90ED90FC9013974B015C01DF
S11338E08C189D08AE08BF087501640114968D906C
S11338F09D90AD90BC9017978C189D08AE08BF089A
S113390084149504A604B7041CF42401350121E0B1
S11339103196E630F10589F6222309F4DEC5141444
S1133920150416041704D4F0A1960FB6F894DEBF5C
S11339300FBECDBFDF91CF911F910F91FF90EF90FC
S1133940DF90CF90BF90AF909F908F907F906F90BB
S11339505F904F903F902F900C94D00E4092A31BF9
S11339605092A41B6092A51B7092A61B41E0409349
S11339701E035FB7F89440931F046093DD027093B5
S1133980DE028093DF029093E0024092B31B5092D8
S1133990B41B6092B51B7092B61B5FBFA1960FB6A5
S11339A0F894DEBF0FBECDBFDF91CF911F910F9171
S11339B0FF90EF90DF90CF90BF90AF909F908F904B
S11339C07F906F905F904F903F902F900C94700B6E
S11339D08FB7F89410924F0710924E0710924A1D19
S11339E01092491D10924A021092490210926C05DD
S11339F010926B050C9453121FB7F89482E08093D5
S1133A0039020E945E081FBF80910D02811165C5B5
S1133A100E94A9010E94A70180914B1D8111B5C983
S1133A200EEF11E0C801019701960197E1F716988E
S1133A300E94A50186E090E0019701960197E1F7C5
S1133A40169A60E083E00E94EC0968E082E00E943C
S1133A50EC09C801019701960197E1F76DE48EE046
S1133A600E94EC0967EC89E00E94EC0960E885E0BB
S1133A700E94EC091092C2048BE080931F036BE652
S1133A8088E00E94EC092F9A81E080934B1DA19657
S1133A900FB6F894DEBF0FBECDBFDF91CF911F915B
S1133AA00F91FF90EF90DF90CF90BF90AF909F90D9
S1133AB08F907F906F905F904F903F902F900C94D9
S1133AC07C083FB7F89410924E1D80910A0891E04B
S1133AD0883009F090E021E0893009F020E091116C
S1133AE002C0222351F010920A08E0910D06F0E082
S1133AF0EE0FFF1FE75CFB4F10823FBF911102C026
S1133B00222309F12FB7F8948091AE1B8F5F809325
S1133B10AE1B80913304833489F4809164059091C1
S1133B206305981301C007C08F5F809364058630D6
S1133B3010F01092640590E080E003C081E08927D2
S1133B4091E02FBF03C081115AC090E03FB7F894B1
S1133B50209138023FBF222339F02FB7F8943AE07E
S1133B6030930A082FBF3FC04FB7F89430913904FF
S1133B7020913B044FBF6FB7F89450916305409177
S1133B8064056FBF541709F131111FC03FB7F89492
S1133B9022E0209339045FB7F894409163052091A3
S1133BA064055FBF421739F0E0916405F0E0ED5918
S1133BB0FA4F228101C020E020933A0423E42093A9
S1133BC0330410920D063FBF0CC02150223058F42C
S1133BD02FB7F89435E43093330431E030930D0675
S1133BE02FBF11E001C010E0992351F09FB7F89462
S1133BF080932F029FBF81E10E94CF0201C010E099
S1133C000FB7F89480910A088A3021F40E94EA03DD
S1133C100FBF63C40FBF112309F45FC48FB7F894B7
S1133C201092701D10926F1D10922F0491E09093CA
S1133C300A088FBF0E940F08882309F44EC48FB767
S1133C40F89499E090930A088FBFA1960FB6F89460
S1133C50DEBF0FBECDBFDF91CF911F910F91FF90BB
S1133C60EF90DF90CF90BF90AF909F908F907F9018
S1133C706F905F904F903F902F900C94FC03809135
S1133C80C1008F7B8093C1008091C1008F778093A6
S1133C90C1001092D90710921D048091C100886060
S1133CA08093C1008091C10080618093C1008091A4
S1133CB0C10080688093C1008FB7F89410920A08FD
S1133CC0109295038FBF1092290407C480E10C94CD
S1133CD08E128091C100877F8093C1008091C100C2
S1133CE08F7E8093C100F9C3109233021092320286
S1133CF09FB7F89480912F029FBF90912E0291114B
S1133D0083E0209134023091350290912D0291117B
S1133D10E4C3882319F00E94E2031EC05FB7F8943D
S1133D2040910D08E42FF0E0EE0FFF1FEE5DFC4F15
S1133D30808191812817390771F4842F8F5F8C302B
S1133D4018F480930D0802C010920D088091290484
S1133D508111109229045FBF80E00C948E129FB7EA
S1133D60F89480912B02C0902902D0902A021091DD
S1133D70E6029FBF811135C0EFB6F8948091DA0254
S1133D80811128C080914802E82FF0E0EE0FFF1F58
S1133D90E55BFA4FF0800181C082D1828F5F8C3065
S1133DA018F48093480202C010924802909148028D
S1133DB08091781D981303C081E08093DA0280918A
S1133DC0D10281110BC081E00E94CF0281E0809377
S1133DD0D10204C00E94E203FC2C0D2DEFBECF2CB7
S1133DE0D02E9FB7F894E12FF0E0EE0FFF1FE85FAD
S1133DF0FD4FC082D18280913702112311F08B7F55
S1133E0001C08D7F8093370210922C029FBF65C33F
S1133E108091E40280FF02C0129801C0129A81FFCF
S1133E2002C0119801C0119A8091E40282FF02C07D
S1133E30109853C3109A51C38091B11B882309F47D
S1133E404CC3BFE6EB2EB5E0FB2E10E001E09091F1
S1133E50B11B802F892379F0D7016D917C91119743
S1133E601D921C92802F809589238093B11B43E07F
S1133E70812F0E943611000F1F5FB2E0EB0EF11C80
S1133E80183029F72AC380910502E82FF0E0EE0FDD
S1133E90FF1FE159FA4F00811181118210828F8F27
S1133EA00E94990C41E0B8018F8DA1960FB6F89449
S1133EB0DEBF0FBECDBFDF91CF911F910F91FF9059
S1133EC0EF90DF90CF90BF90AF909F908F907F90B6
S1133ED06F905F904F903F902F900C94361180918B
S1133EE02C0890912D089093E5028093E40283E1DD
S1133EF00C948E129FB7F8948091800580FF05C0C2
S1133F008E7F8093800581E001C080E09FBF88237D
S1133F1009F4E3C284E392E10E94140D87E10C9456
S1133F208E12B0902102B4FCD8C280911E02882364
S1133F3009F4D3C2A090D302C090091BD0900A1BED
S1133F40A11004C0EFEFCE16DE0699F0FFEFCF16F6
S1133F50DF0679F088248394A81409F4A5C2E090BC
S1133F600B1BF0900C1BC6010E945902E80EF91EAF
S1133F709DC240E157E260E070E084E0A1960FB694
S1133F80F894DEBF0FBECDBFDF91CF911F910F918B
S1133F90FF90EF90DF90CF90BF90AF909F908F9065
S1133FA07F906F905F904F903F902F900C94AF084C
S1133FB00E948603D3018D919C910E94A003C301AA
S1133FC00E94BD0375C0F801AA20A1F19389A091B4
S1133FD03404B091350485E801900D928A95E1F797
S1133FE000913404109135049E3E11F40E94DA03CA
S1133FF0109335040093340460E0D3018D919C91B7
S1134000A1960FB6F894DEBF0FBECDBFDF91CF915E
S11340101F910F91FF90EF90DF90CF90BF90AF90E2
S11340209F908F907F906F905F904F903F902F90D4
S11340300C946010E786F686D301ED91FC911197FC
S113404084858F738487ED91FC911197218120627F
S1134050928180E0822B818392839B2D9860909340
S11340602102B0FE08C0ED91FC91848580648487B0
S11340709E7F90932102D301ED91FC91C682D78259
S113408081E78387492D4D50BF0182E00E94E40CF3
S1134090811106C0809121028061809321021DC29A
S11340A0823009F01AC2D301ED91FC918FE780832D
S11340B0A1960FB6F894DEBF0FBECDBFDF91CF91AE
S11340C01F910F91FF90EF90DF90CF90BF90AF9032
S11340D09F908F907F906F905F904F903F902F9024
S11340E00C941D038091D3028111F7C13090E70233
S11340F040902A0850902B088090091B90900A1B2E
S1134100A12CB12CCC24CA94DC2C2FEF3FEF3A83A2
S11341102983E12CF12C3EC08501F3E0000F111F2F
S1134120FA95E1F7055C1C4FD80112968D919C918C
S113413013978F3FBFEF9B0751F18415950539F114
S1134140F80160807180C3010E945902D80114965D
S11341504D915C9115979C01240F351F17966C9116
S11341606814790441F450930C1B40930B1B609327
S11341700E1B69010CC061110AC0C29740F4498149
S11341805A812417350718F43A83298378015FEF9D
S1134190A51AB50AA31408F4BFCF69817A816F3FC9
S11341A08FEF780709F483C09FEFC916D90699F0F9
S11341B080910E1B882341F080910B1B90910C1B66
S11341C00A966817790738F089819A810F968C15B9
S11341D09D0508F06CC08091AA1B9091AB1BA09127
S11341E0AC1BB091AD1B0196A11DB11D8093AA1B00
S11341F09093AB1BA093AC1BB093AD1B8091091B98
S113420090910A1B0E9445028F3F49F02EE0829F45
S1134210F0011124EF57FA4F8581877F8583D701F9
S11342208D919C910E9445028F3F49F0BEE08B9F87
S1134230F0011124EF57FA4F858188608583F701D7
S1134240808191810E9445028F3F41F02EE0829F40
S1134250F0011124EF57FA4F15861486D7018D917A
S11342609C91119790930A1B8093091B14968D912E
S11342709C91159790930C1B80930B1B17968C9114
S113428080930E1BC60189809A80881999094597E5
S113429070F080E890E0A0E0B0E08093000290939A
S11342A00102A0930202B09303020E947309809159
S11342B0180281110AC0CD20C09439F449815A8171
S11342C04F3F5F4F11F00E941D031092180205C169
S11342D080911902811101C1E0913004F0913104FF
S11342E010829091091B80910A1BE0913004F09197
S11342F03104928381838091D302E0903004F09062
S11343003104882359F090910B1B80910C1BD70129
S113431014969C93149713968C9321C08091091B37
S113432090910A1B8F3FBFEF9B0759F490910B1B91
S113433080910C1BF7019483838380818068808340
S11343400EC000910B1B10910C1B0E945902800F90
S1134350911FD70114968C93149713969C9320E085
S113436030E000E010E07AE0C72ED12CEEE0FE2E23
S113437080911C02F901E80FF11DCF010196B601ED
S11343800E94E628F89ED001F99EB00D1124AF5783
S1134390BA4F15964C91159743704330A1F4082FEA
S11343A05C9111964C911197812F90E0FC01EE0FD6
S11343B0FF1FE80FF91FE755FC4F51834083189600
S11343C08C9182831F5F2930310511F500931C0203
S11343D080911D02982F9F5F90931D028093A303E9
S11343E0812F8F708093A2038FEF80939C0380931F
S11343F09D0380E78093A103412F440F410F495F40
S113440066E973E083E00E94E40C81110BC006C0EE
S11344102F5F3F4F1F3008F4ABCFD8CF81E080939C
S113442019025BC0843009F058C010921B0255C0B9
S113443010923302109232026ECC0093ED02802F60
S113444090E0FC01EE0FFF1FE856F44E3183208309
S11344507F5F7093D607FC01E15BF24E7083FC0131
S1134460ED58F24E10820C94F91481100C947A19C0
S11344700C9420198091D302882309F4DAC8D3C894
S113448080E090E0A8A1B9A11E96BC91BE8F1D8EBC
S1134490E8A1F9A12785AD8CBE8CA22A95018217CB
S11344A0930708F448C937C9E12CF12CE0912002A4
S11344B0F0E0EE0FFF1FEA55FB4E60807180D301E0
S11344C00D911C91F8019080C8010E944E039091B7
S11344D0D202891708F077CD6BCDA1960FB6F89468
S11344E0DEBF0FBECDBFDF91CF911F910F91FF9023
S11344F0EF90DF90CF90BF90AF909F908F907F9080
S11345006F905F904F903F902F9008958FB7F894DD
S113451008958FBF08951F920F920FB60F92112422
S11345200BB60F922F933F934F935F936F937F93A9
S11345308F939F93AF93BF93EF93FF930E943C029B
S11345402091B30030E02F5F3F4F8091E9029091BA
S1134550EA02A091EB02B091EC02820F931FA11D1D
S1134560B11D8093E9029093EA02A093EB02B09309
S1134570EC0278940E94700BFF91EF91BF91AF9180
S11345809F918F917F916F915F914F913F912F9167
S11345900F900BBE0F900FBE0F901F9018951F9297
S11345A00F920FB60F9211240BB60F922F933F93D5
S11345B04F935F936F937F938F939F93AF93BF9327
S11345C0EF93FF930E943C02FF91EF91BF91AF9153
S11345D09F918F917F916F915F914F913F912F9117
S11345E00F900BBE0F900FBE0F901F9018951F9247
S11345F00F920FB60F9211240BB60F922F933F9385
S11346004F935F936F937F938F939F93AF93BF93D6
S1134610EF93FF932EB580914E0790914F0700972B
S113462039F0E0916B05F0916C05E80FF91F2083D8
S113463040916B0550916C05CA01019690936C05ED
S113464080936B052CB52F772CBD60914902709136
S11346504A028617970708F03FC02091491D309100
S11346604A1DE0914E07F0914F07455F5F4F641775
S11346707507D8F4AB0119C02115310549F0D901EA
S1134680A80FB91F6C916EBD0DB407FEFDCF04C019
S11346901EBC0DB407FEFDCF6EB5309721F0DF01CF
S11346A0A80FB91F6C93019602C041505109841799
S11346B0950710F34CB540684CBD2115310531F018
S11346C0F901E80FF91F20812EBD01C01EBC909393
S11346D06C0580936B0511C010924F0710924E0722
S11346E010924A1D1092491D10924A0210924902DA
S11346F010926C0510926B058EB5FF91EF91BF91EE
S1134700AF919F918F917F916F915F914F913F9165
S11347102F910F900BBE0F900FBE0F901F90189506
S113472078941F920F920FB60F9211240BB60F922A
S11347302F933F934F935F936F937F938F939F93A5
S1134740AF93BF93EF93FF9380916F008D7F80931E
S11347506F0078948FB7F8949091D507913019F43D
S113476092E09093D5078FBF0E94FA02FF91EF91D8
S1134770BF91AF919F918F917F916F915F914F9175
S11347803F912F910F900BBE0F900FBE0F901F9073
S1134790189578941F920F920FB60F9211240F90D0
S11347A00FBE0F901F90189578941F920F920FB61A
S11347B00F9211240F900FBE0F901F9018957894AC
S11347C01F920F920FB60F9211240BB60F922F93D4
S11347D03F934F935F936F937F938F939F93AF9385
S11347E0BF93EF93FF93E6E8F0E0808191818081AD
S11347F091812FB7F89490932E0480932D0481E037
S11348008093081B2FBF0E94FA02FF91EF91BF9182
S1134810AF919F918F917F916F915F914F913F9154
S11348202F910F900BBE0F900FBE0F901F901895F5
S113483078941F920F920FB60F9211242F938F9397
S11348409F93AF93BF932FB7F8948091770590917E
S11348507805A0917905B0917A050196A11DB11D45
S11348608093770590937805A0937905B0937A05A2
S11348702FBFBF91AF919F918F912F910F900FBE3A
S11348800F901F9018951F920F920FB60F9211243C
S11348900BB60F922F933F934F935F936F937F9336
S11348A08F939F93AF93BF93EF93FF938091C00037
S11348B087FF44C06091C60020917D0530917E053C
S11348C02115310521F180914C1D90914D1DF90167
S11348D0E80FF91F6083019690934D1D80934C1D42
S11348E02091711D3091721D8217930738F1109237
S11348F07E0510927D058091D9078330F9F080916F
S1134900C1008F778093C1001092D90717C06E370A
S113491019F460E081E010C0809127026D3721F422
S11349208260809327020AC081FF05C08D7F809337
S1134930270280E2682780E00E940B06FF91EF9136
S1134940BF91AF919F918F917F916F915F914F91A3
S11349503F912F910F900BBE0F900FBE0F901F90A1
S1134960189578941F920F920FB60F9211240BB6DC
S11349700F92FF920F931F932F933F934F935F9345
S11349806F937F938F939F93AF93BF93CF93DF9353
S1134990EF93FF9380911B0490911C042091961B2C
S11349A03091971B82179307B8F4E0913604F09185
S11349B03704E80FF91F2081019690931C0480931B
S11349C01B049FB7F8942093C6008091C0008064B4
S11349D08093C0009FBFBFC010923704109236046A
S11349E010921D048091C1008F7B8093C1000FB78A
S11349F0F8948091270280FF0AC08E7F809327025B
S1134A0080911008809309030E94D807A3C0809165
S1134A100A08843009F480C038F48230E1F080F56B
S1134A20813009F092C00CC0863009F483C008F4C8
S1134A307AC0873009F485C0883009F086C088C000
S1134A40809133040E941C08182F83E080930A0885
S1134A50609133040AC08091AE1B0E941C08182F79
S1134A6083E080930A086091AE1B80916F1D909142
S1134A70701D0E94BD059093701D80936F1D63C0CF
S1134A80E0910D06F0E0EE0FFF1FE65CFB4F808126
S1134A900E941C08182FF0900D06CF2DD0E0FE01C7
S1134AA0EE0FFF1FE65CFB4F608180916F1D9091BC
S1134AB0701D0E94BD059093701D80936F1D8091A1
S1134AC02F048F5F80932F0491E0F91223C020916B
S1134AD03002E0913402F0913502E20FF11D908131
S1134AE02F5F2093300230913102321720F492E08C
S1134AF090933B0490E0CC0FDD1FFE01E75CFB4F7D
S1134B002081223039F08F3F09F404C0C65CDB4FAA
S1134B10988319C084E012C080916F1D0E941C0804
S1134B20182F85E00BC08091701D0E941C08182F5F
S1134B3086E004C00E940F08182F87E080930A08BB
S1134B4002C088E003C0112329F089E080930A0899
S1134B500E94FC030FBFFF91EF91DF91CF91BF91B2
S1134B60AF919F918F917F916F915F914F913F9101
S1134B702F911F910F91FF900F900BBE0F900FBEBE
S1134B800F901F9018951F920F920FB60F92112439
S1134B908F938091C80087FD8091CE008F910F90F4
S1134BA00FBE0F901F90189578941F920F920FB616
S1134BB00F9211240F900FBE0F901F9018957894A8
S1134BC01F920F920FB60F9211240F900FBE0F90E9
S1134BD01F90189578941F920F920FB60F9211247C
S1134BE00F900FBE0F901F90189578941F920F92FC
S1134BF00FB60F9211240F900FBE0F901F901895AF
S1134C0078941F920F920FB60F9211248F939F9353
S1134C1080919600909197009F918F910F900FBE75
S1134C200F901F90189578941F920F920FB60F92C1
S1134C3011242F938F939F932FB7F89480912B0473
S1134C4090912C04019690932C0480932B042FBFF5
S1134C509F918F912F910F900FBE0F901F901895D9
S1134C60CFB7F89414BE88E10FB6F894809360002F
S1134C70109260000FBE4BE150E06FEF70E08EEEDB
S1134C8092E00E949D298FEF8093A71B8093541D6F
S1134C9056985E9854985C9880916F008F7D8093AD
S1134CA06F000E94A9010E94A701279A0E94A501F2
S1134CB00E9A169A8DE394E09093E2028093E102B7
S1134CC0109228048AE580938B0381E0809381000D
S1134CD080E28093B60083E08093B10080918400E9
S1134CE0909185004AE7209184003091850028172F
S1134CF0390708F44150C9014111F5CF8091B20040
S1134D009091B2009817E1F32091840030918500CE
S1134D108091B2009091B2009817E1F380918400E1
S1134D20909185004096821B930B55E0969587954C
S1134D305A95E1F79093A91B8093A81B1092B10098
S1134D40109281001092B6001092B2001092850069
S1134D50109284008FEF87BB86BB8091B60085716B
S1134D60E1F70A9A099A089A129A119A109A18B8AD
S1134D708FEF87B90C9814981092950010929400B4
S1134D808091710081608093710080919100887F8F
S1134D90826080939100109285001092840080912B
S1134DA06F00816080936F0080918100887F8260B2
S1134DB0809381000E942A028F3F09F4E2C10E947D
S1134DC07E11F8CF9C01220F331F220F331F26526E
S1134DD0384F2193319301968C30910599F78CE0EB
S1134DE08093C3041092B21BE2E1F8E080E090E00B
S1134DF045E8489F9001499F300D11242659314FB1
S1134E002193319301968C30910599F78CE080932E
S1134E10C40410922A0410921B0210921A021092D7
S1134E20AA1B1092AB1B1092AC1B1092AD1B1092DC
S1134E30D3028FEF9FEF90930A1B8093091B10926C
S1134E400C1B10920B1B10920D1B10920E1B109238
S1134E50E70284EA93E0909331048093300480E283
S1134E6094E09093481D8093471D80E597E09093CC
S1134E703504809334041092E302E6E8F5E01082EE
S1134E803E9686E0E231F807D1F780E094E0909313
S1134E903D0280933C021092460210923E02109210
S1134EA03F0210924002109241021092420210926C
S1134EB0430210924402109245021092800510920F
S1134EC0D70712E0D6E06091A81B7091A91B80E07F
S1134ED090E02CE0660F771F881F991F2A95D1F761
S1134EE020E031EE40E050E00E94FA2821503109E0
S1134EF02093C4003093C5001093C000D093C20027
S1134F001092C1002093CC003093CD001093C800C0
S1134F10D093CA001092C90084E490E09093101BCF
S1134F2080930F1B1092390410923B048AE0809303
S1134F300A0810922F04109233041092AE1B1092A0
S1134F40701D10926F1D10924E1D10920D060E943E
S1134F50180210926405109263058FEF8093320457
S1134F600E946F0D8091B60080628093B60080919C
S1134F70B60081FDFCCF82E08093B0008091B60042
S1134F8080FDFCCF83E08093B1008091B60083FD67
S1134F90FCCF86EE8093B300809170008260809392
S1134FA070000E94700B2091160230911702C90103
S1134FB00196A0E0B0E08093240490932504A0938C
S1134FC02604B093270488EB9BE19093D502809349
S1134FD0D4028DE39CE19093D7028093D60282ECB5
S1134FE09CE19093D9028093D8028FEF9FEF909326
S1134FF0991B8093981B90939B1B80939A1B90936F
S11350009D1B80939C1B90939F1B80939E1B90934E
S1135010A11B8093A01B2295207F20933B028FEF3E
S113502080933A030E942A028F3F09F4B3C00E947E
S11350307E11F8CF489F9001499F300D11242953C8
S11350403B4E2193319301968C30910599F7109240
S11350500D081092DB021092B01B81E080932904AA
S1135060EBE4F5E080E090E045E8489F9001499F3B
S1135070300D1124225D374F2193319301968C30EA
S1135080910599F71092781D109248021092D1025E
S113509081E08093DA020E947107893011F4109242
S11350A0DA028FB7F89490910A089A3041F09091FF
S11350B09503943021F08FBF1092290404C08FBF50
S11350C08EE00E94CF020E9471070E947107CFB741
S11350D0F8944EC080917000837099F08091B6006E
S11350E08A71E1F78091B3009091B200891B8C30F2
S11350F010F492E007C08091B200853FD0F793E0AE
S113510001C095E080916E008670E9F480916F0093
S11351108E72C9F4809171008E72A9F40CB407FCEC
S113512012C08091C100887171F48091C9008871A6
S113513051F48091BC0082FD06C080917A0087FF03
S113514004C0E1E003C0E0E001C0E5E083B79E17DE
S113515008F4E92FF0E0EE5FFE4FE491807F816078
S11351608E2B83BF78948895F89483B78E7F83BF02
S11351700E942A028F3F09F4ADCFCFBF0E947E1157
S1135180A6CF10924A051092D202E7E5FDE180E035
S113519090E018CECFBF7894E2E2F3E080E090E0B4
S11351A045E848CFAA1BBB1B51E107C0AA1FBB1F80
S11351B0A617B70710F0A61BB70B881F991F5A959F
S11351C0A9F780959095BC01CD01089597FB072E12
S11351D016F4009407D077FD09D00E94D22807FC6A
S11351E005D03EF4909581959F4F089570956195F3
S11351F07F4F0895A1E21A2EAA1BBB1BFD010DC00F
S1135200AA1FBB1FEE1FFF1FA217B307E407F50772
S113521020F0A21BB30BE40BF50B661F771F881F4E
S1135220991F1A9469F760957095809590959B01E4
S1135230AC01BD01CF010895DF93CF931F930F936A
S11352409A9DF02D219FF00D8B9DF00D8A9DE02DF0
S1135250F10D039FF00D029FE00DF11D4E9DE00D39
S1135260F11D5E9DF00D4F9DF00D7F936F93BF92E6
S1135270AF925F934F93D5010E9488298B01AC01B3
S1135280D7010E948829EB01E80FF91FD60122D02B
S11352902F913F91D6010E948829C60FD71FE81F7E
S11352A0F91FAF91BF9116D02F913F910E94882989
S11352B0C60FD71FE81FF91FD6010E948829E60FE1
S11352C0F71F9801BE01CF0111240F911F91CF91B7
S11352D0DF9108950E948829460F571FC81FD91FC0
S11352E008F431960895EE0FFF1F0590F491E02D18
S11352F009940F930F7351F0969587957795679559
S113530057954795379527950A95B1F70F910895C5
S1135310A29FB001B39FC001A39F01D0B29F700DA3
S1135320811D1124911D0895FB01DC0102C001902F
S11353300D9241505040D8F70895DC0101C06D939F
S10F534041505040E0F70895F894FFCF6E
S113534C80000000010444064406C906FFFFFFFF69
S10B535CFFFFFF220100010024
S9030000FC
